{
  "_format": "hh-sol-artifact-1",
  "contractName": "consultVerse",
  "sourceName": "contracts/consultVerse.sol",
  "abi": [
    {
      "inputs": [],
      "stateMutability": "nonpayable",
      "type": "constructor"
    },
    {
      "anonymous": false,
      "inputs": [
        {
          "indexed": false,
          "internalType": "address",
          "name": "ClientAddress",
          "type": "address"
        },
        {
          "indexed": false,
          "internalType": "string",
          "name": "ClientName",
          "type": "string"
        },
        {
          "indexed": false,
          "internalType": "string",
          "name": "ClientEmailId",
          "type": "string"
        },
        {
          "indexed": false,
          "internalType": "string",
          "name": "ClientPhoneNumber",
          "type": "string"
        },
        {
          "indexed": false,
          "internalType": "string",
          "name": "IntersestedConsulation",
          "type": "string"
        }
      ],
      "name": "AddedClient",
      "type": "event"
    },
    {
      "anonymous": false,
      "inputs": [
        {
          "indexed": false,
          "internalType": "address",
          "name": "ExpertAddress",
          "type": "address"
        },
        {
          "indexed": false,
          "internalType": "string",
          "name": "ExpertName",
          "type": "string"
        },
        {
          "indexed": false,
          "internalType": "string",
          "name": "EmailId",
          "type": "string"
        },
        {
          "indexed": false,
          "internalType": "string",
          "name": "PhoneNumber",
          "type": "string"
        },
        {
          "indexed": false,
          "internalType": "string",
          "name": "Expertise",
          "type": "string"
        },
        {
          "indexed": false,
          "internalType": "uint256",
          "name": "ExpertFees",
          "type": "uint256"
        }
      ],
      "name": "AddedExpert",
      "type": "event"
    },
    {
      "anonymous": false,
      "inputs": [
        {
          "indexed": false,
          "internalType": "address",
          "name": "ClientAddress",
          "type": "address"
        },
        {
          "indexed": false,
          "internalType": "bool",
          "name": "reqAccepted",
          "type": "bool"
        },
        {
          "indexed": false,
          "internalType": "string",
          "name": "ClientEmailAddress",
          "type": "string"
        },
        {
          "indexed": false,
          "internalType": "string",
          "name": "ClientName",
          "type": "string"
        },
        {
          "indexed": false,
          "internalType": "string",
          "name": "phoneNumber",
          "type": "string"
        },
        {
          "indexed": false,
          "internalType": "uint256",
          "name": "RequestIndex",
          "type": "uint256"
        }
      ],
      "name": "ClientRequested",
      "type": "event"
    },
    {
      "anonymous": false,
      "inputs": [
        {
          "indexed": false,
          "internalType": "address",
          "name": "ExpertAddress",
          "type": "address"
        },
        {
          "indexed": false,
          "internalType": "bool",
          "name": "ExpertRequestStatus",
          "type": "bool"
        },
        {
          "indexed": false,
          "internalType": "string",
          "name": "ExpertName",
          "type": "string"
        },
        {
          "indexed": false,
          "internalType": "string",
          "name": "Expertise",
          "type": "string"
        },
        {
          "indexed": false,
          "internalType": "uint256",
          "name": "ExpertFees",
          "type": "uint256"
        }
      ],
      "name": "ExpertRequestAccepted",
      "type": "event"
    },
    {
      "anonymous": false,
      "inputs": [
        {
          "indexed": false,
          "internalType": "address",
          "name": "ExpertAddress",
          "type": "address"
        },
        {
          "indexed": false,
          "internalType": "uint256",
          "name": "RequestNumber",
          "type": "uint256"
        },
        {
          "indexed": false,
          "internalType": "bool",
          "name": "RequestStatus",
          "type": "bool"
        },
        {
          "indexed": false,
          "internalType": "string",
          "name": "ExpertName",
          "type": "string"
        },
        {
          "indexed": false,
          "internalType": "string",
          "name": "ExpertemailAddress",
          "type": "string"
        },
        {
          "indexed": false,
          "internalType": "string",
          "name": "phoneNumber",
          "type": "string"
        },
        {
          "indexed": false,
          "internalType": "string",
          "name": "expertise",
          "type": "string"
        },
        {
          "indexed": false,
          "internalType": "uint256",
          "name": "coursefees",
          "type": "uint256"
        }
      ],
      "name": "ExpertRequested",
      "type": "event"
    },
    {
      "inputs": [
        {
          "internalType": "address",
          "name": "_ClientAddress",
          "type": "address"
        }
      ],
      "name": "AcceptParticularClientRequest",
      "outputs": [],
      "stateMutability": "nonpayable",
      "type": "function"
    },
    {
      "inputs": [
        {
          "internalType": "address",
          "name": "_ExpertAddress",
          "type": "address"
        }
      ],
      "name": "AcceptParticularExpertRequest",
      "outputs": [],
      "stateMutability": "nonpayable",
      "type": "function"
    },
    {
      "inputs": [
        {
          "internalType": "string",
          "name": "_ClientName",
          "type": "string"
        },
        {
          "internalType": "string",
          "name": "_ClientEmailID",
          "type": "string"
        },
        {
          "internalType": "string",
          "name": "_ClientPhone",
          "type": "string"
        },
        {
          "internalType": "string",
          "name": "_InterestedConsulation",
          "type": "string"
        }
      ],
      "name": "AddClient",
      "outputs": [],
      "stateMutability": "nonpayable",
      "type": "function"
    },
    {
      "inputs": [
        {
          "internalType": "address",
          "name": "",
          "type": "address"
        }
      ],
      "name": "AllClientRequestes",
      "outputs": [
        {
          "internalType": "address",
          "name": "whoRequested",
          "type": "address"
        },
        {
          "internalType": "address",
          "name": "whomRequestd",
          "type": "address"
        },
        {
          "internalType": "bool",
          "name": "reqstatus",
          "type": "bool"
        },
        {
          "internalType": "uint256",
          "name": "ReqIndex",
          "type": "uint256"
        }
      ],
      "stateMutability": "view",
      "type": "function"
    },
    {
      "inputs": [
        {
          "internalType": "address",
          "name": "",
          "type": "address"
        }
      ],
      "name": "AllRequestes",
      "outputs": [
        {
          "internalType": "address",
          "name": "whoRequested",
          "type": "address"
        },
        {
          "internalType": "bool",
          "name": "requestStatus",
          "type": "bool"
        },
        {
          "internalType": "uint256",
          "name": "ReqIndex",
          "type": "uint256"
        }
      ],
      "stateMutability": "view",
      "type": "function"
    },
    {
      "inputs": [
        {
          "internalType": "address",
          "name": "_ExpertAddress",
          "type": "address"
        },
        {
          "internalType": "address",
          "name": "_ClientAddress",
          "type": "address"
        }
      ],
      "name": "ApplytoParticularExpert",
      "outputs": [],
      "stateMutability": "payable",
      "type": "function"
    },
    {
      "inputs": [
        {
          "internalType": "string",
          "name": "_ExpertName",
          "type": "string"
        },
        {
          "internalType": "string",
          "name": "_EmailId",
          "type": "string"
        },
        {
          "internalType": "string",
          "name": "_PhoneNumber",
          "type": "string"
        },
        {
          "internalType": "string",
          "name": "_Expertise",
          "type": "string"
        },
        {
          "internalType": "uint256",
          "name": "_ExpertFees",
          "type": "uint256"
        }
      ],
      "name": "FillExpertProfile",
      "outputs": [],
      "stateMutability": "nonpayable",
      "type": "function"
    },
    {
      "inputs": [],
      "name": "GetSmartContractBalance",
      "outputs": [
        {
          "internalType": "uint256",
          "name": "",
          "type": "uint256"
        }
      ],
      "stateMutability": "view",
      "type": "function"
    },
    {
      "inputs": [],
      "name": "NoOfClientRequests",
      "outputs": [
        {
          "internalType": "uint256",
          "name": "",
          "type": "uint256"
        }
      ],
      "stateMutability": "view",
      "type": "function"
    },
    {
      "inputs": [],
      "name": "NoOfRequests",
      "outputs": [
        {
          "internalType": "uint256",
          "name": "",
          "type": "uint256"
        }
      ],
      "stateMutability": "view",
      "type": "function"
    },
    {
      "inputs": [
        {
          "internalType": "address",
          "name": "",
          "type": "address"
        }
      ],
      "name": "OneAdminMap",
      "outputs": [
        {
          "internalType": "address",
          "name": "WalletAddress",
          "type": "address"
        },
        {
          "internalType": "string",
          "name": "AdminName",
          "type": "string"
        },
        {
          "internalType": "string",
          "name": "Role",
          "type": "string"
        }
      ],
      "stateMutability": "view",
      "type": "function"
    },
    {
      "inputs": [
        {
          "internalType": "address",
          "name": "",
          "type": "address"
        }
      ],
      "name": "OneClientMap",
      "outputs": [
        {
          "internalType": "address",
          "name": "ClientAddress",
          "type": "address"
        },
        {
          "internalType": "string",
          "name": "name",
          "type": "string"
        },
        {
          "internalType": "string",
          "name": "emailId",
          "type": "string"
        },
        {
          "internalType": "string",
          "name": "phoneNumber",
          "type": "string"
        },
        {
          "internalType": "string",
          "name": "IntersestedConsulation",
          "type": "string"
        }
      ],
      "stateMutability": "view",
      "type": "function"
    },
    {
      "inputs": [
        {
          "internalType": "address",
          "name": "",
          "type": "address"
        }
      ],
      "name": "OneExpertMap",
      "outputs": [
        {
          "internalType": "address",
          "name": "ExpertAddress",
          "type": "address"
        },
        {
          "internalType": "string",
          "name": "name",
          "type": "string"
        },
        {
          "internalType": "string",
          "name": "emailId",
          "type": "string"
        },
        {
          "internalType": "string",
          "name": "phoneNumber",
          "type": "string"
        },
        {
          "internalType": "string",
          "name": "expertise",
          "type": "string"
        },
        {
          "internalType": "uint256",
          "name": "courseFees",
          "type": "uint256"
        }
      ],
      "stateMutability": "view",
      "type": "function"
    },
    {
      "inputs": [],
      "name": "checkClientRequestStatus",
      "outputs": [
        {
          "internalType": "bool",
          "name": "",
          "type": "bool"
        }
      ],
      "stateMutability": "view",
      "type": "function"
    },
    {
      "inputs": [],
      "name": "checkRequestStatus",
      "outputs": [
        {
          "internalType": "bool",
          "name": "",
          "type": "bool"
        }
      ],
      "stateMutability": "view",
      "type": "function"
    },
    {
      "inputs": [
        {
          "internalType": "address",
          "name": "_expertAddress",
          "type": "address"
        }
      ],
      "name": "getClientsOfExpert",
      "outputs": [
        {
          "internalType": "address[]",
          "name": "",
          "type": "address[]"
        }
      ],
      "stateMutability": "view",
      "type": "function"
    },
    {
      "inputs": [
        {
          "internalType": "address",
          "name": "_clientAddress",
          "type": "address"
        }
      ],
      "name": "getExpertOfClients",
      "outputs": [
        {
          "internalType": "address[]",
          "name": "",
          "type": "address[]"
        }
      ],
      "stateMutability": "view",
      "type": "function"
    },
    {
      "inputs": [],
      "name": "requestAdmin",
      "outputs": [],
      "stateMutability": "nonpayable",
      "type": "function"
    },
    {
      "inputs": [
        {
          "internalType": "address payable",
          "name": "_ClientAddressToPay",
          "type": "address"
        }
      ],
      "name": "sendAllDepoiststoClient",
      "outputs": [],
      "stateMutability": "payable",
      "type": "function"
    },
    {
      "inputs": [
        {
          "internalType": "address payable",
          "name": "_ExpertAddressToPay",
          "type": "address"
        }
      ],
      "name": "sendAllDepositsToExpert",
      "outputs": [],
      "stateMutability": "payable",
      "type": "function"
    },
    {
      "stateMutability": "payable",
      "type": "receive"
    }
  ],
  "bytecode": "0x60806040526000805560006001553480156200001a57600080fd5b506000600460003373ffffffffffffffffffffffffffffffffffffffff1673ffffffffffffffffffffffffffffffffffffffff1681526020019081526020016000209050338160000160006101000a81548173ffffffffffffffffffffffffffffffffffffffff021916908373ffffffffffffffffffffffffffffffffffffffff1602179055506040518060400160405280600781526020017f796f726963686900000000000000000000000000000000000000000000000000815250816001019081620000e99190620003b4565b506040518060400160405280600581526020017f41646d696e000000000000000000000000000000000000000000000000000000815250816002019081620001329190620003b4565b50506200049b565b600081519050919050565b7f4e487b7100000000000000000000000000000000000000000000000000000000600052604160045260246000fd5b7f4e487b7100000000000000000000000000000000000000000000000000000000600052602260045260246000fd5b60006002820490506001821680620001bc57607f821691505b602082108103620001d257620001d162000174565b5b50919050565b60008190508160005260206000209050919050565b60006020601f8301049050919050565b600082821b905092915050565b6000600883026200023c7fffffffffffffffffffffffffffffffffffffffffffffffffffffffffffffffff82620001fd565b620002488683620001fd565b95508019841693508086168417925050509392505050565b6000819050919050565b6000819050919050565b6000620002956200028f620002898462000260565b6200026a565b62000260565b9050919050565b6000819050919050565b620002b18362000274565b620002c9620002c0826200029c565b8484546200020a565b825550505050565b600090565b620002e0620002d1565b620002ed818484620002a6565b505050565b5b81811015620003155762000309600082620002d6565b600181019050620002f3565b5050565b601f82111562000364576200032e81620001d8565b6200033984620001ed565b8101602085101562000349578190505b620003616200035885620001ed565b830182620002f2565b50505b505050565b600082821c905092915050565b6000620003896000198460080262000369565b1980831691505092915050565b6000620003a4838362000376565b9150826002028217905092915050565b620003bf826200013a565b67ffffffffffffffff811115620003db57620003da62000145565b5b620003e78254620001a3565b620003f482828562000319565b600060209050601f8311600181146200042c576000841562000417578287015190505b62000423858262000396565b86555062000493565b601f1984166200043c86620001d8565b60005b8281101562000466578489015182556001820191506020850194506020810190506200043f565b8683101562000486578489015162000482601f89168262000376565b8355505b6001600288020188555050505b505050505050565b612adf80620004ab6000396000f3fe6080604052600436106101235760003560e01c806371d08dc5116100a0578063bd668c7711610064578063bd668c77146103fc578063d87f70fe14610425578063e2c49fa61461044e578063e88ba8931461048e578063ebe3870c146104a55761012a565b806371d08dc51461030c578063903c8aec146103355780639577899c1461037457806395ca5aa614610390578063afe92040146103bb5761012a565b806348dc76fc116100e757806348dc76fc1461021b5780634e054205146102585780634f7b4e3b1461028357806361a9796e1461029f57806362e1665b146102ca5761012a565b80630c9a01f11461012f5780630eca56281461016e578063126556e3146101ab57806331683b53146101d45780634463b986146101ff5761012a565b3661012a57005b600080fd5b34801561013b57600080fd5b5061015660048036038101906101519190611c18565b6104d0565b60405161016593929190611ce4565b60405180910390f35b34801561017a57600080fd5b5061019560048036038101906101909190611c18565b61062a565b6040516101a29190611de7565b60405180910390f35b3480156101b757600080fd5b506101d260048036038101906101cd9190611f3e565b6106fa565b005b3480156101e057600080fd5b506101e961080e565b6040516101f6919061202e565b60405180910390f35b61021960048036038101906102149190612049565b610814565b005b34801561022757600080fd5b50610242600480360381019061023d9190611c18565b610b00565b60405161024f9190611de7565b60405180910390f35b34801561026457600080fd5b5061026d610bd0565b60405161027a919061202e565b60405180910390f35b61029d600480360381019061029891906120c7565b610bd8565b005b3480156102ab57600080fd5b506102b4610c22565b6040516102c1919061210f565b60405180910390f35b3480156102d657600080fd5b506102f160048036038101906102ec9190611c18565b610d49565b6040516103039695949392919061212a565b60405180910390f35b34801561031857600080fd5b50610333600480360381019061032e9190611c18565b610fc5565b005b34801561034157600080fd5b5061035c60048036038101906103579190611c18565b61126f565b60405161036b939291906121a7565b60405180910390f35b61038e600480360381019061038991906120c7565b6112c6565b005b34801561039c57600080fd5b506103a5611310565b6040516103b2919061210f565b60405180910390f35b3480156103c757600080fd5b506103e260048036038101906103dd9190611c18565b611437565b6040516103f39594939291906121de565b60405180910390f35b34801561040857600080fd5b50610423600480360381019061041e9190612279565b6116ad565b005b34801561043157600080fd5b5061044c60048036038101906104479190611c18565b6117cd565b005b34801561045a57600080fd5b5061047560048036038101906104709190611c18565b6119ad565b6040516104859493929190612364565b60405180910390f35b34801561049a57600080fd5b506104a3611a2a565b005b3480156104b157600080fd5b506104ba611ba0565b6040516104c7919061202e565b60405180910390f35b60046020528060005260406000206000915090508060000160009054906101000a900473ffffffffffffffffffffffffffffffffffffffff1690806001018054610519906123d8565b80601f0160208091040260200160405190810160405280929190818152602001828054610545906123d8565b80156105925780601f1061056757610100808354040283529160200191610592565b820191906000526020600020905b81548152906001019060200180831161057557829003601f168201915b5050505050908060020180546105a7906123d8565b80601f01602080910402602001604051908101604052809291908181526020018280546105d3906123d8565b80156106205780601f106105f557610100808354040283529160200191610620565b820191906000526020600020905b81548152906001019060200180831161060357829003601f168201915b5050505050905083565b6060600260008373ffffffffffffffffffffffffffffffffffffffff1673ffffffffffffffffffffffffffffffffffffffff1681526020019081526020016000206006018054806020026020016040519081016040528092919081815260200182805480156106ee57602002820191906000526020600020905b8160009054906101000a900473ffffffffffffffffffffffffffffffffffffffff1673ffffffffffffffffffffffffffffffffffffffff16815260200190600101908083116106a4575b50505050509050919050565b6000600360003373ffffffffffffffffffffffffffffffffffffffff1673ffffffffffffffffffffffffffffffffffffffff1681526020019081526020016000209050338160000160006101000a81548173ffffffffffffffffffffffffffffffffffffffff021916908373ffffffffffffffffffffffffffffffffffffffff1602179055508481600101908161079191906125b5565b50838160020190816107a391906125b5565b50828160030190816107b591906125b5565b50818160040190816107c791906125b5565b507f65e833733571e598380f84b2c912c3efbe9fcba090c3a5f4f4a431fa3392fbb333868686866040516107ff9594939291906121de565b60405180910390a15050505050565b60005481565b3373ffffffffffffffffffffffffffffffffffffffff16600360003373ffffffffffffffffffffffffffffffffffffffff1673ffffffffffffffffffffffffffffffffffffffff16815260200190815260200160002060000160009054906101000a900473ffffffffffffffffffffffffffffffffffffffff1673ffffffffffffffffffffffffffffffffffffffff16146108e4576040517f08c379a00000000000000000000000000000000000000000000000000000000081526004016108db906126f9565b60405180910390fd5b6000600660008373ffffffffffffffffffffffffffffffffffffffff1673ffffffffffffffffffffffffffffffffffffffff1681526020019081526020016000209050338160000160006101000a81548173ffffffffffffffffffffffffffffffffffffffff021916908373ffffffffffffffffffffffffffffffffffffffff160217905550828160010160006101000a81548173ffffffffffffffffffffffffffffffffffffffff021916908373ffffffffffffffffffffffffffffffffffffffff160217905550600154816002018190555060008160010160146101000a81548160ff021916908315150217905550600160008154809291906109e890612748565b91905055506000600360003373ffffffffffffffffffffffffffffffffffffffff1673ffffffffffffffffffffffffffffffffffffffff16815260200190815260200160002090503073ffffffffffffffffffffffffffffffffffffffff166108fc349081150290604051600060405180830381858888f19350505050158015610a76573d6000803e3d6000fd5b507fb06b43e852246acaca061887a4c38f6978edcd69f7a5045852a4fd4b5f61bb268160000160009054906101000a900473ffffffffffffffffffffffffffffffffffffffff168360010160149054906101000a900460ff168360020184600101856003018760020154604051610af296959493929190612814565b60405180910390a150505050565b6060600360008373ffffffffffffffffffffffffffffffffffffffff1673ffffffffffffffffffffffffffffffffffffffff168152602001908152602001600020600501805480602002602001604051908101604052809291908181526020018280548015610bc457602002820191906000526020600020905b8160009054906101000a900473ffffffffffffffffffffffffffffffffffffffff1673ffffffffffffffffffffffffffffffffffffffff1681526020019060010190808311610b7a575b50505050509050919050565b600047905090565b8073ffffffffffffffffffffffffffffffffffffffff166108fc479081150290604051600060405180830381858888f19350505050158015610c1e573d6000803e3d6000fd5b5050565b60003373ffffffffffffffffffffffffffffffffffffffff16600260003373ffffffffffffffffffffffffffffffffffffffff1673ffffffffffffffffffffffffffffffffffffffff16815260200190815260200160002060000160009054906101000a900473ffffffffffffffffffffffffffffffffffffffff1673ffffffffffffffffffffffffffffffffffffffff1614610cf4576040517f08c379a0000000000000000000000000000000000000000000000000000000008152600401610ceb906128fc565b60405180910390fd5b600560003373ffffffffffffffffffffffffffffffffffffffff1673ffffffffffffffffffffffffffffffffffffffff16815260200190815260200160002060000160149054906101000a900460ff16905090565b60026020528060005260406000206000915090508060000160009054906101000a900473ffffffffffffffffffffffffffffffffffffffff1690806001018054610d92906123d8565b80601f0160208091040260200160405190810160405280929190818152602001828054610dbe906123d8565b8015610e0b5780601f10610de057610100808354040283529160200191610e0b565b820191906000526020600020905b815481529060010190602001808311610dee57829003601f168201915b505050505090806002018054610e20906123d8565b80601f0160208091040260200160405190810160405280929190818152602001828054610e4c906123d8565b8015610e995780601f10610e6e57610100808354040283529160200191610e99565b820191906000526020600020905b815481529060010190602001808311610e7c57829003601f168201915b505050505090806003018054610eae906123d8565b80601f0160208091040260200160405190810160405280929190818152602001828054610eda906123d8565b8015610f275780601f10610efc57610100808354040283529160200191610f27565b820191906000526020600020905b815481529060010190602001808311610f0a57829003601f168201915b505050505090806004018054610f3c906123d8565b80601f0160208091040260200160405190810160405280929190818152602001828054610f68906123d8565b8015610fb55780601f10610f8a57610100808354040283529160200191610fb5565b820191906000526020600020905b815481529060010190602001808311610f9857829003601f168201915b5050505050908060050154905086565b3373ffffffffffffffffffffffffffffffffffffffff16600260003373ffffffffffffffffffffffffffffffffffffffff1673ffffffffffffffffffffffffffffffffffffffff16815260200190815260200160002060000160009054906101000a900473ffffffffffffffffffffffffffffffffffffffff1673ffffffffffffffffffffffffffffffffffffffff1614611095576040517f08c379a000000000000000000000000000000000000000000000000000000000815260040161108c906128fc565b60405180910390fd5b6000600660008373ffffffffffffffffffffffffffffffffffffffff1673ffffffffffffffffffffffffffffffffffffffff16815260200190815260200160002090506000600360008473ffffffffffffffffffffffffffffffffffffffff1673ffffffffffffffffffffffffffffffffffffffff168152602001908152602001600020905060018260010160146101000a81548160ff0219169083151502179055506000600260003373ffffffffffffffffffffffffffffffffffffffff1673ffffffffffffffffffffffffffffffffffffffff168152602001908152602001600020905080600601849080600181540180825580915050600190039060005260206000200160009091909190916101000a81548173ffffffffffffffffffffffffffffffffffffffff021916908373ffffffffffffffffffffffffffffffffffffffff160217905550816005018160000160009054906101000a900473ffffffffffffffffffffffffffffffffffffffff169080600181540180825580915050600190039060005260206000200160009091909190916101000a81548173ffffffffffffffffffffffffffffffffffffffff021916908373ffffffffffffffffffffffffffffffffffffffff16021790555050505050565b60056020528060005260406000206000915090508060000160009054906101000a900473ffffffffffffffffffffffffffffffffffffffff16908060000160149054906101000a900460ff16908060010154905083565b8073ffffffffffffffffffffffffffffffffffffffff166108fc479081150290604051600060405180830381858888f1935050505015801561130c573d6000803e3d6000fd5b5050565b60003373ffffffffffffffffffffffffffffffffffffffff16600360003373ffffffffffffffffffffffffffffffffffffffff1673ffffffffffffffffffffffffffffffffffffffff16815260200190815260200160002060000160009054906101000a900473ffffffffffffffffffffffffffffffffffffffff1673ffffffffffffffffffffffffffffffffffffffff16146113e2576040517f08c379a00000000000000000000000000000000000000000000000000000000081526004016113d9906126f9565b60405180910390fd5b600660003373ffffffffffffffffffffffffffffffffffffffff1673ffffffffffffffffffffffffffffffffffffffff16815260200190815260200160002060010160149054906101000a900460ff16905090565b60036020528060005260406000206000915090508060000160009054906101000a900473ffffffffffffffffffffffffffffffffffffffff1690806001018054611480906123d8565b80601f01602080910402602001604051908101604052809291908181526020018280546114ac906123d8565b80156114f95780601f106114ce576101008083540402835291602001916114f9565b820191906000526020600020905b8154815290600101906020018083116114dc57829003601f168201915b50505050509080600201805461150e906123d8565b80601f016020809104026020016040519081016040528092919081815260200182805461153a906123d8565b80156115875780601f1061155c57610100808354040283529160200191611587565b820191906000526020600020905b81548152906001019060200180831161156a57829003601f168201915b50505050509080600301805461159c906123d8565b80601f01602080910402602001604051908101604052809291908181526020018280546115c8906123d8565b80156116155780601f106115ea57610100808354040283529160200191611615565b820191906000526020600020905b8154815290600101906020018083116115f857829003601f168201915b50505050509080600401805461162a906123d8565b80601f0160208091040260200160405190810160405280929190818152602001828054611656906123d8565b80156116a35780601f10611678576101008083540402835291602001916116a3565b820191906000526020600020905b81548152906001019060200180831161168657829003601f168201915b5050505050905085565b6000600260003373ffffffffffffffffffffffffffffffffffffffff1673ffffffffffffffffffffffffffffffffffffffff1681526020019081526020016000209050338160000160006101000a81548173ffffffffffffffffffffffffffffffffffffffff021916908373ffffffffffffffffffffffffffffffffffffffff1602179055508581600101908161174491906125b5565b508481600201908161175691906125b5565b508381600301908161176891906125b5565b508281600401908161177a91906125b5565b508181600501819055507fb9123145fbe6acafc80dda10c06614bfa16a19965cb73b45964003ed3ddbb2793387878787876040516117bd9695949392919061212a565b60405180910390a1505050505050565b3373ffffffffffffffffffffffffffffffffffffffff16600460003373ffffffffffffffffffffffffffffffffffffffff1673ffffffffffffffffffffffffffffffffffffffff16815260200190815260200160002060000160009054906101000a900473ffffffffffffffffffffffffffffffffffffffff1673ffffffffffffffffffffffffffffffffffffffff161461189d576040517f08c379a00000000000000000000000000000000000000000000000000000000081526004016118949061298e565b60405180910390fd5b6001600560008373ffffffffffffffffffffffffffffffffffffffff1673ffffffffffffffffffffffffffffffffffffffff16815260200190815260200160002060000160146101000a81548160ff0219169083151502179055506000600260008373ffffffffffffffffffffffffffffffffffffffff1673ffffffffffffffffffffffffffffffffffffffff16815260200190815260200160002090507f2ca2968cbfecaccbe379992ff675dc2d44378e7ecc84414aa66ebcf17f715f418160000160009054906101000a900473ffffffffffffffffffffffffffffffffffffffff166001836001018460040185600501546040516119a19594939291906129ae565b60405180910390a15050565b60066020528060005260406000206000915090508060000160009054906101000a900473ffffffffffffffffffffffffffffffffffffffff16908060010160009054906101000a900473ffffffffffffffffffffffffffffffffffffffff16908060010160149054906101000a900460ff16908060020154905084565b6000600560003373ffffffffffffffffffffffffffffffffffffffff1673ffffffffffffffffffffffffffffffffffffffff1681526020019081526020016000209050338160000160006101000a81548173ffffffffffffffffffffffffffffffffffffffff021916908373ffffffffffffffffffffffffffffffffffffffff16021790555060008160000160146101000a81548160ff0219169083151502179055506000548160010181905550600080815480929190611aea90612748565b91905055506000600260003373ffffffffffffffffffffffffffffffffffffffff1673ffffffffffffffffffffffffffffffffffffffff16815260200190815260200160002090507ff0c3edba105c4746aafee46a4a4446aa3b43bfdee8b12094636e20db71b25c9c3383600101548460000160149054906101000a900460ff16846001018560020186600301876004018860050154604051611b94989796959493929190612a0f565b60405180910390a15050565b60015481565b6000604051905090565b600080fd5b600080fd5b600073ffffffffffffffffffffffffffffffffffffffff82169050919050565b6000611be582611bba565b9050919050565b611bf581611bda565b8114611c0057600080fd5b50565b600081359050611c1281611bec565b92915050565b600060208284031215611c2e57611c2d611bb0565b5b6000611c3c84828501611c03565b91505092915050565b611c4e81611bda565b82525050565b600081519050919050565b600082825260208201905092915050565b60005b83811015611c8e578082015181840152602081019050611c73565b60008484015250505050565b6000601f19601f8301169050919050565b6000611cb682611c54565b611cc08185611c5f565b9350611cd0818560208601611c70565b611cd981611c9a565b840191505092915050565b6000606082019050611cf96000830186611c45565b8181036020830152611d0b8185611cab565b90508181036040830152611d1f8184611cab565b9050949350505050565b600081519050919050565b600082825260208201905092915050565b6000819050602082019050919050565b611d5e81611bda565b82525050565b6000611d708383611d55565b60208301905092915050565b6000602082019050919050565b6000611d9482611d29565b611d9e8185611d34565b9350611da983611d45565b8060005b83811015611dda578151611dc18882611d64565b9750611dcc83611d7c565b925050600181019050611dad565b5085935050505092915050565b60006020820190508181036000830152611e018184611d89565b905092915050565b600080fd5b600080fd5b7f4e487b7100000000000000000000000000000000000000000000000000000000600052604160045260246000fd5b611e4b82611c9a565b810181811067ffffffffffffffff82111715611e6a57611e69611e13565b5b80604052505050565b6000611e7d611ba6565b9050611e898282611e42565b919050565b600067ffffffffffffffff821115611ea957611ea8611e13565b5b611eb282611c9a565b9050602081019050919050565b82818337600083830152505050565b6000611ee1611edc84611e8e565b611e73565b905082815260208101848484011115611efd57611efc611e0e565b5b611f08848285611ebf565b509392505050565b600082601f830112611f2557611f24611e09565b5b8135611f35848260208601611ece565b91505092915050565b60008060008060808587031215611f5857611f57611bb0565b5b600085013567ffffffffffffffff811115611f7657611f75611bb5565b5b611f8287828801611f10565b945050602085013567ffffffffffffffff811115611fa357611fa2611bb5565b5b611faf87828801611f10565b935050604085013567ffffffffffffffff811115611fd057611fcf611bb5565b5b611fdc87828801611f10565b925050606085013567ffffffffffffffff811115611ffd57611ffc611bb5565b5b61200987828801611f10565b91505092959194509250565b6000819050919050565b61202881612015565b82525050565b6000602082019050612043600083018461201f565b92915050565b600080604083850312156120605761205f611bb0565b5b600061206e85828601611c03565b925050602061207f85828601611c03565b9150509250929050565b600061209482611bba565b9050919050565b6120a481612089565b81146120af57600080fd5b50565b6000813590506120c18161209b565b92915050565b6000602082840312156120dd576120dc611bb0565b5b60006120eb848285016120b2565b91505092915050565b60008115159050919050565b612109816120f4565b82525050565b60006020820190506121246000830184612100565b92915050565b600060c08201905061213f6000830189611c45565b81810360208301526121518188611cab565b905081810360408301526121658187611cab565b905081810360608301526121798186611cab565b9050818103608083015261218d8185611cab565b905061219c60a083018461201f565b979650505050505050565b60006060820190506121bc6000830186611c45565b6121c96020830185612100565b6121d6604083018461201f565b949350505050565b600060a0820190506121f36000830188611c45565b81810360208301526122058187611cab565b905081810360408301526122198186611cab565b9050818103606083015261222d8185611cab565b905081810360808301526122418184611cab565b90509695505050505050565b61225681612015565b811461226157600080fd5b50565b6000813590506122738161224d565b92915050565b600080600080600060a0868803121561229557612294611bb0565b5b600086013567ffffffffffffffff8111156122b3576122b2611bb5565b5b6122bf88828901611f10565b955050602086013567ffffffffffffffff8111156122e0576122df611bb5565b5b6122ec88828901611f10565b945050604086013567ffffffffffffffff81111561230d5761230c611bb5565b5b61231988828901611f10565b935050606086013567ffffffffffffffff81111561233a57612339611bb5565b5b61234688828901611f10565b925050608061235788828901612264565b9150509295509295909350565b60006080820190506123796000830187611c45565b6123866020830186611c45565b6123936040830185612100565b6123a0606083018461201f565b95945050505050565b7f4e487b7100000000000000000000000000000000000000000000000000000000600052602260045260246000fd5b600060028204905060018216806123f057607f821691505b602082108103612403576124026123a9565b5b50919050565b60008190508160005260206000209050919050565b60006020601f8301049050919050565b600082821b905092915050565b60006008830261246b7fffffffffffffffffffffffffffffffffffffffffffffffffffffffffffffffff8261242e565b612475868361242e565b95508019841693508086168417925050509392505050565b6000819050919050565b60006124b26124ad6124a884612015565b61248d565b612015565b9050919050565b6000819050919050565b6124cc83612497565b6124e06124d8826124b9565b84845461243b565b825550505050565b600090565b6124f56124e8565b6125008184846124c3565b505050565b5b81811015612524576125196000826124ed565b600181019050612506565b5050565b601f8211156125695761253a81612409565b6125438461241e565b81016020851015612552578190505b61256661255e8561241e565b830182612505565b50505b505050565b600082821c905092915050565b600061258c6000198460080261256e565b1980831691505092915050565b60006125a5838361257b565b9150826002028217905092915050565b6125be82611c54565b67ffffffffffffffff8111156125d7576125d6611e13565b5b6125e182546123d8565b6125ec828285612528565b600060209050601f83116001811461261f576000841561260d578287015190505b6126178582612599565b86555061267f565b601f19841661262d86612409565b60005b8281101561265557848901518255600182019150602085019450602081019050612630565b86831015612672578489015161266e601f89168261257b565b8355505b6001600288020188555050505b505050505050565b7f4f6e6c7920436c69656e742043616e204d6f6469667920746869732046756e6360008201527f74696f6e00000000000000000000000000000000000000000000000000000000602082015250565b60006126e3602483611c5f565b91506126ee82612687565b604082019050919050565b60006020820190508181036000830152612712816126d6565b9050919050565b7f4e487b7100000000000000000000000000000000000000000000000000000000600052601160045260246000fd5b600061275382612015565b91507fffffffffffffffffffffffffffffffffffffffffffffffffffffffffffffffff820361278557612784612719565b5b600182019050919050565b6000815461279d816123d8565b6127a78186611c5f565b945060018216600081146127c257600181146127d85761280b565b60ff19831686528115156020028601935061280b565b6127e185612409565b60005b83811015612803578154818901526001820191506020810190506127e4565b808801955050505b50505092915050565b600060c0820190506128296000830189611c45565b6128366020830188612100565b81810360408301526128488187612790565b9050818103606083015261285c8186612790565b905081810360808301526128708185612790565b905061287f60a083018461201f565b979650505050505050565b7f4f6e6c7920457870657274732043616e204d6f6469667920746869732046756e60008201527f6374696f6e000000000000000000000000000000000000000000000000000000602082015250565b60006128e6602583611c5f565b91506128f18261288a565b604082019050919050565b60006020820190508181036000830152612915816128d9565b9050919050565b7f4f6e6c792041646d696e2043616e204d6f6469667920746869732046756e637460008201527f696f6e0000000000000000000000000000000000000000000000000000000000602082015250565b6000612978602383611c5f565b91506129838261291c565b604082019050919050565b600060208201905081810360008301526129a78161296b565b9050919050565b600060a0820190506129c36000830188611c45565b6129d06020830187612100565b81810360408301526129e28186612790565b905081810360608301526129f68185612790565b9050612a05608083018461201f565b9695505050505050565b600061010082019050612a25600083018b611c45565b612a32602083018a61201f565b612a3f6040830189612100565b8181036060830152612a518188612790565b90508181036080830152612a658187612790565b905081810360a0830152612a798186612790565b905081810360c0830152612a8d8185612790565b9050612a9c60e083018461201f565b999850505050505050505056fea26469706673582212200be33c806dfbb4048044275da68f7b56c49e60d4133fd0618b5150b2301ae4c464736f6c63430008140033",
  "linkReferences": {},
  "deployedLinkReferences": {}
}