{
  "_format": "hh-sol-artifact-1",
  "contractName": "consultVerse",
  "sourceName": "contracts/consultVerse.sol",
  "abi": [
    {
      "inputs": [],
      "stateMutability": "nonpayable",
      "type": "constructor"
    },
    {
      "anonymous": false,
      "inputs": [
        {
          "indexed": false,
          "internalType": "address",
          "name": "ClientAddress",
          "type": "address"
        },
        {
          "indexed": false,
          "internalType": "string",
          "name": "ClientName",
          "type": "string"
        },
        {
          "indexed": false,
          "internalType": "string",
          "name": "ClientEmailId",
          "type": "string"
        },
        {
          "indexed": false,
          "internalType": "string",
          "name": "ClientPhoneNumber",
          "type": "string"
        },
        {
          "indexed": false,
          "internalType": "string",
          "name": "IntersestedConsulation",
          "type": "string"
        }
      ],
      "name": "AddedClient",
      "type": "event"
    },
    {
      "anonymous": false,
      "inputs": [
        {
          "indexed": false,
          "internalType": "address",
          "name": "ExpertAddress",
          "type": "address"
        },
        {
          "indexed": false,
          "internalType": "string",
          "name": "ExpertName",
          "type": "string"
        },
        {
          "indexed": false,
          "internalType": "string",
          "name": "EmailId",
          "type": "string"
        },
        {
          "indexed": false,
          "internalType": "string",
          "name": "PhoneNumber",
          "type": "string"
        },
        {
          "indexed": false,
          "internalType": "string",
          "name": "Expertise",
          "type": "string"
        },
        {
          "indexed": false,
          "internalType": "uint256",
          "name": "ExpertFees",
          "type": "uint256"
        }
      ],
      "name": "AddedExpert",
      "type": "event"
    },
    {
      "anonymous": false,
      "inputs": [
        {
          "indexed": false,
          "internalType": "address",
          "name": "ClientAddress",
          "type": "address"
        },
        {
          "indexed": false,
          "internalType": "string",
          "name": "ClientEmailAddress",
          "type": "string"
        },
        {
          "indexed": false,
          "internalType": "string",
          "name": "ClientName",
          "type": "string"
        },
        {
          "indexed": false,
          "internalType": "string",
          "name": "phoneNumber",
          "type": "string"
        },
        {
          "indexed": false,
          "internalType": "uint256",
          "name": "RequestIndex",
          "type": "uint256"
        }
      ],
      "name": "ClientRequested",
      "type": "event"
    },
    {
      "anonymous": false,
      "inputs": [
        {
          "indexed": false,
          "internalType": "address",
          "name": "ExpertAddress",
          "type": "address"
        },
        {
          "indexed": false,
          "internalType": "uint256",
          "name": "RequestNumber",
          "type": "uint256"
        },
        {
          "indexed": false,
          "internalType": "string",
          "name": "ExpertName",
          "type": "string"
        },
        {
          "indexed": false,
          "internalType": "string",
          "name": "ExpertemailAddress",
          "type": "string"
        },
        {
          "indexed": false,
          "internalType": "string",
          "name": "phoneNumber",
          "type": "string"
        },
        {
          "indexed": false,
          "internalType": "string",
          "name": "expertise",
          "type": "string"
        },
        {
          "indexed": false,
          "internalType": "uint256",
          "name": "coursefees",
          "type": "uint256"
        }
      ],
      "name": "ExpertRequested",
      "type": "event"
    },
    {
      "inputs": [
        {
          "internalType": "address",
          "name": "_ClientAddress",
          "type": "address"
        }
      ],
      "name": "AcceptParticularClientRequest",
      "outputs": [],
      "stateMutability": "nonpayable",
      "type": "function"
    },
    {
      "inputs": [
        {
          "internalType": "address",
          "name": "_ExpertAddress",
          "type": "address"
        }
      ],
      "name": "AcceptParticularExpertRequest",
      "outputs": [],
      "stateMutability": "nonpayable",
      "type": "function"
    },
    {
      "inputs": [
        {
          "internalType": "string",
          "name": "_ClientName",
          "type": "string"
        },
        {
          "internalType": "string",
          "name": "_ClientEmailID",
          "type": "string"
        },
        {
          "internalType": "string",
          "name": "_ClientPhone",
          "type": "string"
        },
        {
          "internalType": "string",
          "name": "_InterestedConsulation",
          "type": "string"
        }
      ],
      "name": "AddClient",
      "outputs": [],
      "stateMutability": "nonpayable",
      "type": "function"
    },
    {
      "inputs": [
        {
          "internalType": "address",
          "name": "",
          "type": "address"
        }
      ],
      "name": "AllClientRequestes",
      "outputs": [
        {
          "internalType": "address",
          "name": "whoRequested",
          "type": "address"
        },
        {
          "internalType": "address",
          "name": "whomRequestd",
          "type": "address"
        },
        {
          "internalType": "bool",
          "name": "reqstatus",
          "type": "bool"
        },
        {
          "internalType": "uint256",
          "name": "ReqIndex",
          "type": "uint256"
        }
      ],
      "stateMutability": "view",
      "type": "function"
    },
    {
      "inputs": [
        {
          "internalType": "address",
          "name": "",
          "type": "address"
        }
      ],
      "name": "AllRequestes",
      "outputs": [
        {
          "internalType": "address",
          "name": "whoRequested",
          "type": "address"
        },
        {
          "internalType": "bool",
          "name": "requestStatus",
          "type": "bool"
        },
        {
          "internalType": "uint256",
          "name": "ReqIndex",
          "type": "uint256"
        }
      ],
      "stateMutability": "view",
      "type": "function"
    },
    {
      "inputs": [
        {
          "internalType": "address",
          "name": "_ExpertAddress",
          "type": "address"
        },
        {
          "internalType": "address",
          "name": "_ClientAddress",
          "type": "address"
        }
      ],
      "name": "ApplytoParticularExpert",
      "outputs": [],
      "stateMutability": "payable",
      "type": "function"
    },
    {
      "inputs": [
        {
          "internalType": "string",
          "name": "_ExpertName",
          "type": "string"
        },
        {
          "internalType": "string",
          "name": "_EmailId",
          "type": "string"
        },
        {
          "internalType": "string",
          "name": "_PhoneNumber",
          "type": "string"
        },
        {
          "internalType": "string",
          "name": "_Expertise",
          "type": "string"
        },
        {
          "internalType": "uint256",
          "name": "_ExpertFees",
          "type": "uint256"
        }
      ],
      "name": "FillExpertProfile",
      "outputs": [],
      "stateMutability": "nonpayable",
      "type": "function"
    },
    {
      "inputs": [],
      "name": "NoOfClientRequests",
      "outputs": [
        {
          "internalType": "uint256",
          "name": "",
          "type": "uint256"
        }
      ],
      "stateMutability": "view",
      "type": "function"
    },
    {
      "inputs": [],
      "name": "NoOfRequests",
      "outputs": [
        {
          "internalType": "uint256",
          "name": "",
          "type": "uint256"
        }
      ],
      "stateMutability": "view",
      "type": "function"
    },
    {
      "inputs": [
        {
          "internalType": "address",
          "name": "",
          "type": "address"
        }
      ],
      "name": "OneAdminMap",
      "outputs": [
        {
          "internalType": "address",
          "name": "WalletAddress",
          "type": "address"
        },
        {
          "internalType": "string",
          "name": "AdminName",
          "type": "string"
        },
        {
          "internalType": "string",
          "name": "Role",
          "type": "string"
        }
      ],
      "stateMutability": "view",
      "type": "function"
    },
    {
      "inputs": [
        {
          "internalType": "address",
          "name": "",
          "type": "address"
        }
      ],
      "name": "OneClientMap",
      "outputs": [
        {
          "internalType": "address",
          "name": "ClientAddress",
          "type": "address"
        },
        {
          "internalType": "string",
          "name": "name",
          "type": "string"
        },
        {
          "internalType": "string",
          "name": "emailId",
          "type": "string"
        },
        {
          "internalType": "string",
          "name": "phoneNumber",
          "type": "string"
        },
        {
          "internalType": "string",
          "name": "IntersestedConsulation",
          "type": "string"
        }
      ],
      "stateMutability": "view",
      "type": "function"
    },
    {
      "inputs": [
        {
          "internalType": "address",
          "name": "",
          "type": "address"
        }
      ],
      "name": "OneExpertMap",
      "outputs": [
        {
          "internalType": "address",
          "name": "ExpertAddress",
          "type": "address"
        },
        {
          "internalType": "string",
          "name": "name",
          "type": "string"
        },
        {
          "internalType": "string",
          "name": "emailId",
          "type": "string"
        },
        {
          "internalType": "string",
          "name": "phoneNumber",
          "type": "string"
        },
        {
          "internalType": "string",
          "name": "expertise",
          "type": "string"
        },
        {
          "internalType": "uint256",
          "name": "courseFees",
          "type": "uint256"
        },
        {
          "internalType": "uint256",
          "name": "rating",
          "type": "uint256"
        }
      ],
      "stateMutability": "view",
      "type": "function"
    },
    {
      "inputs": [],
      "name": "checkClientRequestStatus",
      "outputs": [
        {
          "internalType": "bool",
          "name": "",
          "type": "bool"
        }
      ],
      "stateMutability": "view",
      "type": "function"
    },
    {
      "inputs": [],
      "name": "checkRequestStatus",
      "outputs": [
        {
          "internalType": "bool",
          "name": "",
          "type": "bool"
        }
      ],
      "stateMutability": "view",
      "type": "function"
    },
    {
      "inputs": [
        {
          "internalType": "address",
          "name": "_expertAddress",
          "type": "address"
        }
      ],
      "name": "getClientsOfExpert",
      "outputs": [
        {
          "internalType": "address[]",
          "name": "",
          "type": "address[]"
        }
      ],
      "stateMutability": "view",
      "type": "function"
    },
    {
      "inputs": [
        {
          "internalType": "address",
          "name": "_clientAddress",
          "type": "address"
        }
      ],
      "name": "getExpertOfClients",
      "outputs": [
        {
          "internalType": "address[]",
          "name": "",
          "type": "address[]"
        }
      ],
      "stateMutability": "view",
      "type": "function"
    },
    {
      "inputs": [],
      "name": "requestAdmin",
      "outputs": [],
      "stateMutability": "nonpayable",
      "type": "function"
    },
    {
      "inputs": [
        {
          "internalType": "address payable",
          "name": "_ClientAddressToPay",
          "type": "address"
        }
      ],
      "name": "sendAllDepoiststoClient",
      "outputs": [],
      "stateMutability": "payable",
      "type": "function"
    },
    {
      "inputs": [
        {
          "internalType": "address payable",
          "name": "_ExpertAddressToPay",
          "type": "address"
        }
      ],
      "name": "sendAllDepositsToExpert",
      "outputs": [],
      "stateMutability": "payable",
      "type": "function"
    },
    {
      "inputs": [
        {
          "internalType": "address",
          "name": "_expertAddress",
          "type": "address"
        },
        {
          "internalType": "uint256",
          "name": "_newRating",
          "type": "uint256"
        }
      ],
      "name": "updateExpertRating",
      "outputs": [],
      "stateMutability": "nonpayable",
      "type": "function"
    },
    {
      "stateMutability": "payable",
      "type": "receive"
    }
  ],
  "bytecode": "0x60806040526000805560006001553480156200001a57600080fd5b506000600460003373ffffffffffffffffffffffffffffffffffffffff1673ffffffffffffffffffffffffffffffffffffffff1681526020019081526020016000209050338160000160006101000a81548173ffffffffffffffffffffffffffffffffffffffff021916908373ffffffffffffffffffffffffffffffffffffffff1602179055506040518060400160405280600781526020017f796f726963686900000000000000000000000000000000000000000000000000815250816001019081620000e99190620003b4565b506040518060400160405280600581526020017f41646d696e000000000000000000000000000000000000000000000000000000815250816002019081620001329190620003b4565b50506200049b565b600081519050919050565b7f4e487b7100000000000000000000000000000000000000000000000000000000600052604160045260246000fd5b7f4e487b7100000000000000000000000000000000000000000000000000000000600052602260045260246000fd5b60006002820490506001821680620001bc57607f821691505b602082108103620001d257620001d162000174565b5b50919050565b60008190508160005260206000209050919050565b60006020601f8301049050919050565b600082821b905092915050565b6000600883026200023c7fffffffffffffffffffffffffffffffffffffffffffffffffffffffffffffffff82620001fd565b620002488683620001fd565b95508019841693508086168417925050509392505050565b6000819050919050565b6000819050919050565b6000620002956200028f620002898462000260565b6200026a565b62000260565b9050919050565b6000819050919050565b620002b18362000274565b620002c9620002c0826200029c565b8484546200020a565b825550505050565b600090565b620002e0620002d1565b620002ed818484620002a6565b505050565b5b81811015620003155762000309600082620002d6565b600181019050620002f3565b5050565b601f82111562000364576200032e81620001d8565b6200033984620001ed565b8101602085101562000349578190505b620003616200035885620001ed565b830182620002f2565b50505b505050565b600082821c905092915050565b6000620003896000198460080262000369565b1980831691505092915050565b6000620003a4838362000376565b9150826002028217905092915050565b620003bf826200013a565b67ffffffffffffffff811115620003db57620003da62000145565b5b620003e78254620001a3565b620003f482828562000319565b600060209050601f8311600181146200042c576000841562000417578287015190505b62000423858262000396565b86555062000493565b601f1984166200043c86620001d8565b60005b8281101562000466578489015182556001820191506020850194506020810190506200043f565b8683101562000486578489015162000482601f89168262000376565b8355505b6001600288020188555050505b505050505050565b612bef80620004ab6000396000f3fe6080604052600436106101235760003560e01c8063903c8aec116100a0578063bd668c7711610064578063bd668c77146103fb578063d87f70fe14610424578063e2c49fa61461044d578063e88ba8931461048d578063ebe3870c146104a45761012a565b8063903c8aec1461030b5780639577899c1461034a57806395ca5aa614610366578063adbcf6a314610391578063afe92040146103ba5761012a565b806348dc76fc116100e757806348dc76fc1461021b5780634f7b4e3b1461025857806361a9796e1461027457806362e1665b1461029f57806371d08dc5146102e25761012a565b80630c9a01f11461012f5780630eca56281461016e578063126556e3146101ab57806331683b53146101d45780634463b986146101ff5761012a565b3661012a57005b600080fd5b34801561013b57600080fd5b5061015660048036038101906101519190611bd4565b6104cf565b60405161016593929190611ca0565b60405180910390f35b34801561017a57600080fd5b5061019560048036038101906101909190611bd4565b610629565b6040516101a29190611da3565b60405180910390f35b3480156101b757600080fd5b506101d260048036038101906101cd9190611efa565b6106f9565b005b3480156101e057600080fd5b506101e961080d565b6040516101f69190611fea565b60405180910390f35b61021960048036038101906102149190612005565b610813565b005b34801561022757600080fd5b50610242600480360381019061023d9190611bd4565b610aea565b60405161024f9190611da3565b60405180910390f35b610272600480360381019061026d9190612083565b610bba565b005b34801561028057600080fd5b50610289610c04565b60405161029691906120cb565b60405180910390f35b3480156102ab57600080fd5b506102c660048036038101906102c19190611bd4565b610d2b565b6040516102d997969594939291906120e6565b60405180910390f35b3480156102ee57600080fd5b5061030960048036038101906103049190611bd4565b610fad565b005b34801561031757600080fd5b50610332600480360381019061032d9190611bd4565b6110e1565b60405161034193929190612171565b60405180910390f35b610364600480360381019061035f9190612083565b611138565b005b34801561037257600080fd5b5061037b611182565b60405161038891906120cb565b60405180910390f35b34801561039d57600080fd5b506103b860048036038101906103b391906121d4565b6112a9565b005b3480156103c657600080fd5b506103e160048036038101906103dc9190611bd4565b6114b8565b6040516103f2959493929190612214565b60405180910390f35b34801561040757600080fd5b50610422600480360381019061041d9190612283565b61172e565b005b34801561043057600080fd5b5061044b60048036038101906104469190611bd4565b61184e565b005b34801561045957600080fd5b50610474600480360381019061046f9190611bd4565b61197c565b604051610484949392919061236e565b60405180910390f35b34801561049957600080fd5b506104a26119f9565b005b3480156104b057600080fd5b506104b9611b5c565b6040516104c69190611fea565b60405180910390f35b60046020528060005260406000206000915090508060000160009054906101000a900473ffffffffffffffffffffffffffffffffffffffff1690806001018054610518906123e2565b80601f0160208091040260200160405190810160405280929190818152602001828054610544906123e2565b80156105915780601f1061056657610100808354040283529160200191610591565b820191906000526020600020905b81548152906001019060200180831161057457829003601f168201915b5050505050908060020180546105a6906123e2565b80601f01602080910402602001604051908101604052809291908181526020018280546105d2906123e2565b801561061f5780601f106105f45761010080835404028352916020019161061f565b820191906000526020600020905b81548152906001019060200180831161060257829003601f168201915b5050505050905083565b6060600260008373ffffffffffffffffffffffffffffffffffffffff1673ffffffffffffffffffffffffffffffffffffffff1681526020019081526020016000206006018054806020026020016040519081016040528092919081815260200182805480156106ed57602002820191906000526020600020905b8160009054906101000a900473ffffffffffffffffffffffffffffffffffffffff1673ffffffffffffffffffffffffffffffffffffffff16815260200190600101908083116106a3575b50505050509050919050565b6000600360003373ffffffffffffffffffffffffffffffffffffffff1673ffffffffffffffffffffffffffffffffffffffff1681526020019081526020016000209050338160000160006101000a81548173ffffffffffffffffffffffffffffffffffffffff021916908373ffffffffffffffffffffffffffffffffffffffff1602179055508481600101908161079091906125bf565b50838160020190816107a291906125bf565b50828160030190816107b491906125bf565b50818160040190816107c691906125bf565b507f65e833733571e598380f84b2c912c3efbe9fcba090c3a5f4f4a431fa3392fbb333868686866040516107fe959493929190612214565b60405180910390a15050505050565b60005481565b3373ffffffffffffffffffffffffffffffffffffffff16600360003373ffffffffffffffffffffffffffffffffffffffff1673ffffffffffffffffffffffffffffffffffffffff16815260200190815260200160002060000160009054906101000a900473ffffffffffffffffffffffffffffffffffffffff1673ffffffffffffffffffffffffffffffffffffffff16146108e3576040517f08c379a00000000000000000000000000000000000000000000000000000000081526004016108da90612703565b60405180910390fd5b6000600660008373ffffffffffffffffffffffffffffffffffffffff1673ffffffffffffffffffffffffffffffffffffffff1681526020019081526020016000209050338160000160006101000a81548173ffffffffffffffffffffffffffffffffffffffff021916908373ffffffffffffffffffffffffffffffffffffffff160217905550828160010160006101000a81548173ffffffffffffffffffffffffffffffffffffffff021916908373ffffffffffffffffffffffffffffffffffffffff160217905550600154816002018190555060008160010160146101000a81548160ff021916908315150217905550600160008154809291906109e790612752565b91905055506000600360003373ffffffffffffffffffffffffffffffffffffffff1673ffffffffffffffffffffffffffffffffffffffff16815260200190815260200160002090503073ffffffffffffffffffffffffffffffffffffffff166108fc349081150290604051600060405180830381858888f19350505050158015610a75573d6000803e3d6000fd5b507fd5ff5f8425dd0713c1cb9bf73b2f4d8f61a7afd4b3291497e5f531667402db4a8160000160009054906101000a900473ffffffffffffffffffffffffffffffffffffffff16826002018360010184600301600154604051610adc95949392919061281e565b60405180910390a150505050565b6060600360008373ffffffffffffffffffffffffffffffffffffffff1673ffffffffffffffffffffffffffffffffffffffff168152602001908152602001600020600501805480602002602001604051908101604052809291908181526020018280548015610bae57602002820191906000526020600020905b8160009054906101000a900473ffffffffffffffffffffffffffffffffffffffff1673ffffffffffffffffffffffffffffffffffffffff1681526020019060010190808311610b64575b50505050509050919050565b8073ffffffffffffffffffffffffffffffffffffffff166108fc479081150290604051600060405180830381858888f19350505050158015610c00573d6000803e3d6000fd5b5050565b60003373ffffffffffffffffffffffffffffffffffffffff16600260003373ffffffffffffffffffffffffffffffffffffffff1673ffffffffffffffffffffffffffffffffffffffff16815260200190815260200160002060000160009054906101000a900473ffffffffffffffffffffffffffffffffffffffff1673ffffffffffffffffffffffffffffffffffffffff1614610cd6576040517f08c379a0000000000000000000000000000000000000000000000000000000008152600401610ccd906128f8565b60405180910390fd5b600560003373ffffffffffffffffffffffffffffffffffffffff1673ffffffffffffffffffffffffffffffffffffffff16815260200190815260200160002060000160149054906101000a900460ff16905090565b60026020528060005260406000206000915090508060000160009054906101000a900473ffffffffffffffffffffffffffffffffffffffff1690806001018054610d74906123e2565b80601f0160208091040260200160405190810160405280929190818152602001828054610da0906123e2565b8015610ded5780601f10610dc257610100808354040283529160200191610ded565b820191906000526020600020905b815481529060010190602001808311610dd057829003601f168201915b505050505090806002018054610e02906123e2565b80601f0160208091040260200160405190810160405280929190818152602001828054610e2e906123e2565b8015610e7b5780601f10610e5057610100808354040283529160200191610e7b565b820191906000526020600020905b815481529060010190602001808311610e5e57829003601f168201915b505050505090806003018054610e90906123e2565b80601f0160208091040260200160405190810160405280929190818152602001828054610ebc906123e2565b8015610f095780601f10610ede57610100808354040283529160200191610f09565b820191906000526020600020905b815481529060010190602001808311610eec57829003601f168201915b505050505090806004018054610f1e906123e2565b80601f0160208091040260200160405190810160405280929190818152602001828054610f4a906123e2565b8015610f975780601f10610f6c57610100808354040283529160200191610f97565b820191906000526020600020905b815481529060010190602001808311610f7a57829003601f168201915b5050505050908060050154908060070154905087565b600660008273ffffffffffffffffffffffffffffffffffffffff1673ffffffffffffffffffffffffffffffffffffffff16815260200190815260200160002060010160009054906101000a900473ffffffffffffffffffffffffffffffffffffffff1673ffffffffffffffffffffffffffffffffffffffff163373ffffffffffffffffffffffffffffffffffffffff161461107d576040517f08c379a000000000000000000000000000000000000000000000000000000000815260040161107490612964565b60405180910390fd5b6000600660008373ffffffffffffffffffffffffffffffffffffffff1673ffffffffffffffffffffffffffffffffffffffff168152602001908152602001600020905060018160010160146101000a81548160ff0219169083151502179055505050565b60056020528060005260406000206000915090508060000160009054906101000a900473ffffffffffffffffffffffffffffffffffffffff16908060000160149054906101000a900460ff16908060010154905083565b8073ffffffffffffffffffffffffffffffffffffffff166108fc479081150290604051600060405180830381858888f1935050505015801561117e573d6000803e3d6000fd5b5050565b60003373ffffffffffffffffffffffffffffffffffffffff16600360003373ffffffffffffffffffffffffffffffffffffffff1673ffffffffffffffffffffffffffffffffffffffff16815260200190815260200160002060000160009054906101000a900473ffffffffffffffffffffffffffffffffffffffff1673ffffffffffffffffffffffffffffffffffffffff1614611254576040517f08c379a000000000000000000000000000000000000000000000000000000000815260040161124b90612703565b60405180910390fd5b600660003373ffffffffffffffffffffffffffffffffffffffff1673ffffffffffffffffffffffffffffffffffffffff16815260200190815260200160002060010160149054906101000a900460ff16905090565b3373ffffffffffffffffffffffffffffffffffffffff16600360003373ffffffffffffffffffffffffffffffffffffffff1673ffffffffffffffffffffffffffffffffffffffff16815260200190815260200160002060000160009054906101000a900473ffffffffffffffffffffffffffffffffffffffff1673ffffffffffffffffffffffffffffffffffffffff1614611379576040517f08c379a000000000000000000000000000000000000000000000000000000000815260040161137090612703565b60405180910390fd5b600073ffffffffffffffffffffffffffffffffffffffff16600260008473ffffffffffffffffffffffffffffffffffffffff1673ffffffffffffffffffffffffffffffffffffffff1681526020019081526020016000206006016000815481106113e6576113e5612984565b5b9060005260206000200160009054906101000a900473ffffffffffffffffffffffffffffffffffffffff1673ffffffffffffffffffffffffffffffffffffffff1603611467576040517f08c379a000000000000000000000000000000000000000000000000000000000815260040161145e906129ff565b60405180910390fd5b6000600260008473ffffffffffffffffffffffffffffffffffffffff1673ffffffffffffffffffffffffffffffffffffffff1681526020019081526020016000209050818160070181905550505050565b60036020528060005260406000206000915090508060000160009054906101000a900473ffffffffffffffffffffffffffffffffffffffff1690806001018054611501906123e2565b80601f016020809104026020016040519081016040528092919081815260200182805461152d906123e2565b801561157a5780601f1061154f5761010080835404028352916020019161157a565b820191906000526020600020905b81548152906001019060200180831161155d57829003601f168201915b50505050509080600201805461158f906123e2565b80601f01602080910402602001604051908101604052809291908181526020018280546115bb906123e2565b80156116085780601f106115dd57610100808354040283529160200191611608565b820191906000526020600020905b8154815290600101906020018083116115eb57829003601f168201915b50505050509080600301805461161d906123e2565b80601f0160208091040260200160405190810160405280929190818152602001828054611649906123e2565b80156116965780601f1061166b57610100808354040283529160200191611696565b820191906000526020600020905b81548152906001019060200180831161167957829003601f168201915b5050505050908060040180546116ab906123e2565b80601f01602080910402602001604051908101604052809291908181526020018280546116d7906123e2565b80156117245780601f106116f957610100808354040283529160200191611724565b820191906000526020600020905b81548152906001019060200180831161170757829003601f168201915b5050505050905085565b6000600260003373ffffffffffffffffffffffffffffffffffffffff1673ffffffffffffffffffffffffffffffffffffffff1681526020019081526020016000209050338160000160006101000a81548173ffffffffffffffffffffffffffffffffffffffff021916908373ffffffffffffffffffffffffffffffffffffffff160217905550858160010190816117c591906125bf565b50848160020190816117d791906125bf565b50838160030190816117e991906125bf565b50828160040190816117fb91906125bf565b508181600501819055507fb9123145fbe6acafc80dda10c06614bfa16a19965cb73b45964003ed3ddbb27933878787878760405161183e96959493929190612a1f565b60405180910390a1505050505050565b3373ffffffffffffffffffffffffffffffffffffffff16600460003373ffffffffffffffffffffffffffffffffffffffff1673ffffffffffffffffffffffffffffffffffffffff16815260200190815260200160002060000160009054906101000a900473ffffffffffffffffffffffffffffffffffffffff1673ffffffffffffffffffffffffffffffffffffffff161461191e576040517f08c379a000000000000000000000000000000000000000000000000000000000815260040161191590612b0e565b60405180910390fd5b6001600560008373ffffffffffffffffffffffffffffffffffffffff1673ffffffffffffffffffffffffffffffffffffffff16815260200190815260200160002060000160146101000a81548160ff02191690831515021790555050565b60066020528060005260406000206000915090508060000160009054906101000a900473ffffffffffffffffffffffffffffffffffffffff16908060010160009054906101000a900473ffffffffffffffffffffffffffffffffffffffff16908060010160149054906101000a900460ff16908060020154905084565b6000600560003373ffffffffffffffffffffffffffffffffffffffff1673ffffffffffffffffffffffffffffffffffffffff1681526020019081526020016000209050338160000160006101000a81548173ffffffffffffffffffffffffffffffffffffffff021916908373ffffffffffffffffffffffffffffffffffffffff16021790555060008160000160146101000a81548160ff0219169083151502179055506000548160010181905550600080815480929190611ab990612752565b91905055506000600260003373ffffffffffffffffffffffffffffffffffffffff1673ffffffffffffffffffffffffffffffffffffffff16815260200190815260200160002090507fa62794136c8f9c39f82afb2ad511eb0f7b23a00624606a66513dca2bb09f6cb6338360010154836001018460020185600301866004018760050154604051611b509796959493929190612b2e565b60405180910390a15050565b60015481565b6000604051905090565b600080fd5b600080fd5b600073ffffffffffffffffffffffffffffffffffffffff82169050919050565b6000611ba182611b76565b9050919050565b611bb181611b96565b8114611bbc57600080fd5b50565b600081359050611bce81611ba8565b92915050565b600060208284031215611bea57611be9611b6c565b5b6000611bf884828501611bbf565b91505092915050565b611c0a81611b96565b82525050565b600081519050919050565b600082825260208201905092915050565b60005b83811015611c4a578082015181840152602081019050611c2f565b60008484015250505050565b6000601f19601f8301169050919050565b6000611c7282611c10565b611c7c8185611c1b565b9350611c8c818560208601611c2c565b611c9581611c56565b840191505092915050565b6000606082019050611cb56000830186611c01565b8181036020830152611cc78185611c67565b90508181036040830152611cdb8184611c67565b9050949350505050565b600081519050919050565b600082825260208201905092915050565b6000819050602082019050919050565b611d1a81611b96565b82525050565b6000611d2c8383611d11565b60208301905092915050565b6000602082019050919050565b6000611d5082611ce5565b611d5a8185611cf0565b9350611d6583611d01565b8060005b83811015611d96578151611d7d8882611d20565b9750611d8883611d38565b925050600181019050611d69565b5085935050505092915050565b60006020820190508181036000830152611dbd8184611d45565b905092915050565b600080fd5b600080fd5b7f4e487b7100000000000000000000000000000000000000000000000000000000600052604160045260246000fd5b611e0782611c56565b810181811067ffffffffffffffff82111715611e2657611e25611dcf565b5b80604052505050565b6000611e39611b62565b9050611e458282611dfe565b919050565b600067ffffffffffffffff821115611e6557611e64611dcf565b5b611e6e82611c56565b9050602081019050919050565b82818337600083830152505050565b6000611e9d611e9884611e4a565b611e2f565b905082815260208101848484011115611eb957611eb8611dca565b5b611ec4848285611e7b565b509392505050565b600082601f830112611ee157611ee0611dc5565b5b8135611ef1848260208601611e8a565b91505092915050565b60008060008060808587031215611f1457611f13611b6c565b5b600085013567ffffffffffffffff811115611f3257611f31611b71565b5b611f3e87828801611ecc565b945050602085013567ffffffffffffffff811115611f5f57611f5e611b71565b5b611f6b87828801611ecc565b935050604085013567ffffffffffffffff811115611f8c57611f8b611b71565b5b611f9887828801611ecc565b925050606085013567ffffffffffffffff811115611fb957611fb8611b71565b5b611fc587828801611ecc565b91505092959194509250565b6000819050919050565b611fe481611fd1565b82525050565b6000602082019050611fff6000830184611fdb565b92915050565b6000806040838503121561201c5761201b611b6c565b5b600061202a85828601611bbf565b925050602061203b85828601611bbf565b9150509250929050565b600061205082611b76565b9050919050565b61206081612045565b811461206b57600080fd5b50565b60008135905061207d81612057565b92915050565b60006020828403121561209957612098611b6c565b5b60006120a78482850161206e565b91505092915050565b60008115159050919050565b6120c5816120b0565b82525050565b60006020820190506120e060008301846120bc565b92915050565b600060e0820190506120fb600083018a611c01565b818103602083015261210d8189611c67565b905081810360408301526121218188611c67565b905081810360608301526121358187611c67565b905081810360808301526121498186611c67565b905061215860a0830185611fdb565b61216560c0830184611fdb565b98975050505050505050565b60006060820190506121866000830186611c01565b61219360208301856120bc565b6121a06040830184611fdb565b949350505050565b6121b181611fd1565b81146121bc57600080fd5b50565b6000813590506121ce816121a8565b92915050565b600080604083850312156121eb576121ea611b6c565b5b60006121f985828601611bbf565b925050602061220a858286016121bf565b9150509250929050565b600060a0820190506122296000830188611c01565b818103602083015261223b8187611c67565b9050818103604083015261224f8186611c67565b905081810360608301526122638185611c67565b905081810360808301526122778184611c67565b90509695505050505050565b600080600080600060a0868803121561229f5761229e611b6c565b5b600086013567ffffffffffffffff8111156122bd576122bc611b71565b5b6122c988828901611ecc565b955050602086013567ffffffffffffffff8111156122ea576122e9611b71565b5b6122f688828901611ecc565b945050604086013567ffffffffffffffff81111561231757612316611b71565b5b61232388828901611ecc565b935050606086013567ffffffffffffffff81111561234457612343611b71565b5b61235088828901611ecc565b9250506080612361888289016121bf565b9150509295509295909350565b60006080820190506123836000830187611c01565b6123906020830186611c01565b61239d60408301856120bc565b6123aa6060830184611fdb565b95945050505050565b7f4e487b7100000000000000000000000000000000000000000000000000000000600052602260045260246000fd5b600060028204905060018216806123fa57607f821691505b60208210810361240d5761240c6123b3565b5b50919050565b60008190508160005260206000209050919050565b60006020601f8301049050919050565b600082821b905092915050565b6000600883026124757fffffffffffffffffffffffffffffffffffffffffffffffffffffffffffffffff82612438565b61247f8683612438565b95508019841693508086168417925050509392505050565b6000819050919050565b60006124bc6124b76124b284611fd1565b612497565b611fd1565b9050919050565b6000819050919050565b6124d6836124a1565b6124ea6124e2826124c3565b848454612445565b825550505050565b600090565b6124ff6124f2565b61250a8184846124cd565b505050565b5b8181101561252e576125236000826124f7565b600181019050612510565b5050565b601f8211156125735761254481612413565b61254d84612428565b8101602085101561255c578190505b61257061256885612428565b83018261250f565b50505b505050565b600082821c905092915050565b600061259660001984600802612578565b1980831691505092915050565b60006125af8383612585565b9150826002028217905092915050565b6125c882611c10565b67ffffffffffffffff8111156125e1576125e0611dcf565b5b6125eb82546123e2565b6125f6828285612532565b600060209050601f8311600181146126295760008415612617578287015190505b61262185826125a3565b865550612689565b601f19841661263786612413565b60005b8281101561265f5784890151825560018201915060208501945060208101905061263a565b8683101561267c5784890151612678601f891682612585565b8355505b6001600288020188555050505b505050505050565b7f4f6e6c7920436c69656e742043616e204d6f6469667920746869732046756e6360008201527f74696f6e00000000000000000000000000000000000000000000000000000000602082015250565b60006126ed602483611c1b565b91506126f882612691565b604082019050919050565b6000602082019050818103600083015261271c816126e0565b9050919050565b7f4e487b7100000000000000000000000000000000000000000000000000000000600052601160045260246000fd5b600061275d82611fd1565b91507fffffffffffffffffffffffffffffffffffffffffffffffffffffffffffffffff820361278f5761278e612723565b5b600182019050919050565b600081546127a7816123e2565b6127b18186611c1b565b945060018216600081146127cc57600181146127e257612815565b60ff198316865281151560200286019350612815565b6127eb85612413565b60005b8381101561280d578154818901526001820191506020810190506127ee565b808801955050505b50505092915050565b600060a0820190506128336000830188611c01565b8181036020830152612845818761279a565b90508181036040830152612859818661279a565b9050818103606083015261286d818561279a565b905061287c6080830184611fdb565b9695505050505050565b7f4f6e6c7920457870657274732043616e204d6f6469667920746869732046756e60008201527f6374696f6e000000000000000000000000000000000000000000000000000000602082015250565b60006128e2602583611c1b565b91506128ed82612886565b604082019050919050565b60006020820190508181036000830152612911816128d5565b9050919050565b7f55736572204d75737420626520436c69656e7420526571756573740000000000600082015250565b600061294e601b83611c1b565b915061295982612918565b602082019050919050565b6000602082019050818103600083015261297d81612941565b9050919050565b7f4e487b7100000000000000000000000000000000000000000000000000000000600052603260045260246000fd5b7f4e6f7420656e726f6c6c65642077697468207468697320657870657274210000600082015250565b60006129e9601e83611c1b565b91506129f4826129b3565b602082019050919050565b60006020820190508181036000830152612a18816129dc565b9050919050565b600060c082019050612a346000830189611c01565b8181036020830152612a468188611c67565b90508181036040830152612a5a8187611c67565b90508181036060830152612a6e8186611c67565b90508181036080830152612a828185611c67565b9050612a9160a0830184611fdb565b979650505050505050565b7f4f6e6c792041646d696e2043616e204d6f6469667920746869732046756e637460008201527f696f6e0000000000000000000000000000000000000000000000000000000000602082015250565b6000612af8602383611c1b565b9150612b0382612a9c565b604082019050919050565b60006020820190508181036000830152612b2781612aeb565b9050919050565b600060e082019050612b43600083018a611c01565b612b506020830189611fdb565b8181036040830152612b62818861279a565b90508181036060830152612b76818761279a565b90508181036080830152612b8a818661279a565b905081810360a0830152612b9e818561279a565b9050612bad60c0830184611fdb565b9897505050505050505056fea2646970667358221220c5c19fc383f8901ac350af72721980433e38b37e243fca4351d0877fe0efad1764736f6c63430008140033",
  "linkReferences": {},
  "deployedLinkReferences": {}
}